:100000000C94BD010C941D040C9404020C94040285
:100010000C9404020C9404020C9404020C94040248
:100020000C9404020C9404020C94401F0C941220B3
:100030000C94E5150C9404020C9404020C94040234
:100040000C9404020C9404020C9404020C94040218
:100050000C9404020C944D160C9404020C940402AB
:100060000C9404020C9404020C9404020C940402F8
:100070000C9404020C9404020C9404020C940402E8
:100080000C9404020C9404020C9404020C940402D8
:100090000C9404020C9404020C9404020C940402C8
:1000A0000C9404020C9404020C940402BB05BD05DC
:1000B000C805BF05C105C305C505C705CA05CC05EB
:1000C000CE05D905D005D205D405D605D805DB0562
:1000D000F60BF60B280C280C660C840CEA0DEA0DC6
:1000E000C60CEA0D690D690DDA0DEA0DEA0DE30D96
:1000F000760D760D760D760D760D760D760D760DE8
:10010000760D760D760D760D760D760D760D760DD7
:10011000870D950D9C0DA30DAD0D7B0E7B0E8D0EE9
:100120008D0E840E8D0E8D0E8D0E7B0E7B0E890E28
:100130008D0E8D0E890E7F20A6209E21A6209E2149
:10014000F22015219E216C217B21AE00AC00AB007A
:10015000A8003A003B003C003D003E0000000000CB
:10016000000029001E0020002000210022000000C5
:10017000000000002B0014001A00080015001700F2
:100180002B0100000000080404001600070009000D
:100190000A00160AF0000000E1001D001B00060026
:1001A00019000500F200F100F300E000E300E200B6
:1001B00028002C00E2003F004000410042004300C4
:1001C000440045004C00B300230024002500260015
:1001D00027002D002E002A004A001C0018000C00E9
:1001E000120013002F00300028004D000B000D00FE
:1001F0000E000F0033003400320028004B001100C5
:1002000010003600370038006400E50052004E0050
:100210002C002C002A00E700E600E400500051000A
:100220004F000403300000001203420046004F005C
:100230002D00390030003000300000000E034B006C
:1002400065006500620069006F0000000403090496
:1002500009025400030100A0FA090400000103018F
:100260000100092111010001224000070581030856
:10027000000A090401000103010200092111010023
:1002800001224D000705820308000A09040200014B
:100290000300000009211101000122360007058337
:1002A0000308000A1201100100000008EBCE6911DA
:1002B00000010102030105010980A1018502160167
:1002C000002603001A81002A830075109501810021
:1002D000C0050C0901A1018503160100269C021A24
:1002E00001002A9C02751095018100C005010902D8
:1002F000A1010901A1000509190129051500250120
:10030000950575018102950175038101050109308B
:1003100009311581257F95027508810609381581F7
:10032000257F950175088106050C0A38021581257F
:100330007F950175088106C0C005010906A1010568
:100340000719E029E7150025019508750181029537
:1003500001750881010508190129059505750191A7
:10036000029501750391010507190029FF15002663
:10037000FF00950675088100C00011241FBECFEF55
:10038000DAE0DEBFCDBF04B603FE27C080916B026A
:1003900090916C02A0916D02B0916E028730904BEB
:1003A000A740B04BD1F410926B0210926C021092E5
:1003B0006D0210926E0214BE84B7877F84BF0FB6A1
:1003C000F894A895809160008861809360001092F5
:1003D00060000FBEE0E0F8E3099511E0A0E0B1E0B5
:1003E000E8E8F4E402C005900D92A434B107D9F70F
:1003F00022E0A4E4B1E001C01D92AB36B207E1F700
:100400000E946D1C0C9442220C940000CF93DF9349
:10041000AEE1B1E044E251E061E070E08D91E82F9F
:10042000E295EF70F0E021A18F70EB0102C0CC0FDC
:10043000DD1F8A95E2F7CE019C2F9095922391A320
:1004400092A1892B82A34A175B0741F7DF91CF91D5
:10045000089508950C9429020C942A020C94290200
:1004600080913E028360886080933E020E94060273
:10047000A5E1B1E041E050E08D91E82FE295EF7009
:10048000F0E021A18F70BA0102C0660F771F8A9534
:10049000E2F7CB01962F9095922391A392A1892BFD
:1004A00082A371E0AE31B70739F7559A209AECE58F
:1004B000F1E0A4E4B1E0119211921D921D9281E04D
:1004C000E437F807C1F70C94F4049F92AF92BF92FF
:1004D000CF92DF92EF92FF920F931F93CF93DF9310
:1004E00080910101811103C0C6E0D0E002C0C0E0EC
:1004F000D0E0CC0FDD1FAE014C5B5E4F7A019EE178
:10050000C92E91E0D92E8A01AA24A394B12C35E0FA
:10051000932EF4E2CF16F1E0DF0609F450C0F601A5
:1005200081916F01E82FE295EF70F0E021A18F70CB
:10053000A50102C0440F551F8A95E2F7CA01922F08
:10054000982B91A392A18095892382A350EA5A9572
:10055000F1F7E5E1F1E020E030E040E050E06191CA
:10056000A62FA295AF70B0E090968C9190E06F703E
:1005700002C0959587956A95E2F780FD08C0C50190
:10058000042E02C0880F991F0A94E2F702C080E08F
:1005900090E0282B392B4F5F5F4F49305105F9F61A
:1005A000F801808191818217930721F031832083A4
:1005B000909200010E9406020E5F1F4FAACF809109
:1005C00000018823C1F0815080930001811103C094
:1005D000C45ADE4F07C08FE99FE00197F1F700C0D2
:1005E000000009C0F701219131917F0129933993CE
:1005F0008F5F8630B9F781E0DF91CF911F910F9126
:10060000FF90EF90DF90CF90BF90AF909F900895B4
:10061000CF93DF9380910101811103C0C0E0D0E04E
:1006200002C0C6E0D0E00E9490040097A9F4CC0F6D
:10063000DD1FC45ADE4F20E030E0F901EE0FFF1F4E
:10064000E858FE4F40815181499359932F5F3F4FA6
:100650002630310591F702C081E090E0DF91CF9123
:100660000895CF930E946502C82F0E940803892B2A
:10067000E1F05D98809174018F5F80937401863002
:10068000B8F080910101811103C0E0E0F0E002C008
:10069000E6E0F0E0EE0FFF1FE45AFE4F86E090E048
:1006A000119211920197E1F703C05D9A10927401C3
:1006B0000E9400058C2FCF9108950E9465028091C1
:1006C0000101811103C0E6E0F0E002C0E0E0F0E0EB
:1006D000EE0FFF1FE45AFE4F80E090E02191319130
:1006E000DC01AA0FBB1FA858BE4F11963C932E9356
:1006F00001968630910591F70895E82FF0E0EE0F0E
:10070000FF1FE45AFE4F8081918108950895E8ED1E
:10071000F0E08081806180838AE18A95F1F700C0F2
:100720008091D900817008950E9487038093010110
:100730000E948703882319F00E94100404C00E94BD
:100740000E160E941404789408950E9430020E94AC
:100750005D03FDCF0E9494030E948703811102C0B4
:100760000E94A5030895509A08955098589A0895A4
:10077000589A08950E94B503489BFECF80E88A9559
:10078000F1F70895CF93DF930E94B50329E080E04D
:1007900090E0880F991F39B13170C32F30E0D32F0B
:1007A0008C2B9D2B30E83A95F1F735E03A95F1F72F
:1007B0000000215071F7DF91CF910895CF92DF9221
:1007C000EF92FF92CF93DF936C010E94B303C9E0D5
:1007D000D0E0E12CF12C2197A0F0D701C6010C2E1E
:1007E00004C0B695A795979587950A94D2F780FF90
:1007F00003C00E94B80301C0589880E88A95F1F7B9
:10080000EACFDF91CF91FF90EF90DF90CF900895E6
:100810000E94B303589880E88A95F1F70C94B803C6
:100820000E94B3030C94B8030E94B503E89AE9E66A
:10083000F0E080818C7F808308951F920F920FB625
:100840000F921124EF92FF920F931F932F933F93D8
:100850004F935F936F937F938F939F93AF93BF93C8
:10086000CF93DF93EF93FF930E940804C0E0D0E0A2
:10087000E12CF12C8E01000F111F08581E4FF801BA
:10088000808191810E94DE030E940804F80180812A
:1008900091819170E80EF91E2196C630D10551F76D
:1008A000C7010E94DE030E940804F0E8FA95F1F700
:1008B00080E48A95F1F70E94C203909377018093B8
:1008C00076010E940804C0917601D09177010E94C0
:1008D000C2038C010E9408040E94B503D17080916C
:1008E00075010C171D0711F0816001C08E7F809388
:1008F0007501FF91EF91DF91CF91BF91AF919F91E2
:100900008F917F916F915F914F913F912F911F91A7
:100910000F91FF90EF900F900FBE0F901F901895C2
:10092000EF92FF920F931F93CF93DF93F8940E945F
:10093000B303589885E08A95F1F700000E94B5034B
:100940000E94B803E0E8EA95F1F748993DC00E949B
:10095000BA03C0E0D0E0E12CF12C0E94C2038E016A
:10096000000F111F08581E4FF801918380830E94C9
:10097000BA03F801808191819170E80EF91E2196E9
:10098000C630D10551F70E94C203EC010E94BA03A0
:10099000EC16FD06C9F480917601909177010E94D2
:1009A000DE030E94BA0380917601909177019170E5
:1009B0000E94DE030E94BA030E94B3030E94B803A0
:1009C000789480E090E003C0789481E090E0DF913B
:1009D000CF911F910F91FF90EF90089581E00895BE
:1009E00081E008950C94F0040E94D314811106C094
:1009F0000E94DE14811102C00E944B150C942C023F
:100A00000C942E0208950C9402050C94030508958D
:100A10000E94670E0E9407052FEF84E39CE021509F
:100A200080409040E1F700C0000087E797E790938F
:100A30000108809300080C947316FF920F931F9384
:100A4000CF93DF938C01FC01C081D1818091AA01F9
:100A5000811113C08281882349F0CE010E94C61300
:100A6000F82E682FCE010E946F1304C0CE010E94A1
:100A70009A13F82EBE018F2D04C0CE010E94C6131A
:100A8000BE010E948F06EC01B8010E94F204882387
:100A900009F43AC1C631FCE5DF0709F401C170F47D
:100AA000C130ECE5DE0751F120F4C115DC45F1F071
:100AB0001EC1C531ECE5DE07E0F119C1C83DFCE51A
:100AC000DF0709F4D2C050F4C63DECE5DE0709F4B7
:100AD00082C0C73DDC4509F4A1C009C1CB3D8CE50E
:100AE000D807B9F0CC3DDC45D9F001C1F8018281CD
:100AF000882309F409C10E94080506C1F801828112
:100B0000882309F401C180913E02816080933E02F6
:100B1000FBC0F8018281882309F4F6C080E006C09A
:100B2000F8018281882309F4EFC082E00E94071D4A
:100B3000EBC0F8018281882309F4DEC00E94D3143F
:100B4000811102C00E944B150E94F01490E0909316
:100B50005D0280935C02FE01E350FC45E231F10549
:100B600030F4EA5AFF4F80915C020C94E6218091A8
:100B70005C02816027C0826025C0846023C08061E0
:100B800021C080621FC080641DC080681BC084605B
:100B9000886018C08E7F16C08D7F14C08B7F12C0F6
:100BA0008F7E10C08F7D0EC08F7B0CC08F770AC0E8
:100BB0008B7F877F07C087FB222720F991E0922750
:100BC00090FB87F980935C0280915C020E94F41490
:100BD0000E94670E99C0F8018281882351F010921B
:100BE00089010E941716909386018093850182E007
:100BF00022C08091890181110FC08091850190915F
:100C000086010E942316883C910530F486E20E94FA
:100C1000410A86E20E944B0B82E024C0F8018281E7
:100C2000882361F010928A010E9417169093880120
:100C30008093870180E20E94B30B66C080918A0195
:100C400081110FC080918701909188010E94231625
:100C5000883C910530F487E20E94410A87E20E94B5
:100C60004B0B80E20E94BA0B4FC0F80182818111C8
:100C7000D9CF80918A018111F4CF80918701909121
:100C800088010E942316883C910558F780E20E9453
:100C9000BA0B88E20E94410A88E20E944B0B34C0E2
:100CA0000E949714982FF8018281209102013091BF
:100CB0000301882379F09A7A81E009F480E0809337
:100CC0008401911102C069E201C065E3C9010E947B
:100CD00081150AC080918401811102C069E201C0BE
:100CE00065E3C9010E9483150E9464140DC081E070
:100CF0008093890180938A01C801DF91CF911F9170
:100D00000F91FF900C94EE0480E0DF91CF911F9142
:100D10000F91FF90089580E090E0089508952CE6EB
:100D2000829FC0011124FC0129E0729FE00DF11D9A
:100D30001124E60FF11DEE0FFF1FE65BFE4F8591BC
:100D400094910895880F991FFC01EE5DFD4F8591E8
:100D500094910895CF93DF930E948F060E944E08CE
:100D6000EC018115904508F041C0C11580E4D80719
:100D700008F01CC1C83ED10510F5C03ED10508F0F1
:100D800089C1C83AD10578F4C53AD10508F09EC0AA
:100D9000C130D10509F47EC108F435C1C430D10594
:100DA00008F078C130C1CD3BD10508F49AC0C03CF1
:100DB000D10508F428C1CE01805C9109E9C0C115B4
:100DC00090E2D90758F4C11521E0D20708F062C1BA
:100DD000C03FD10508F417C1D0655CC1C11580E3DF
:100DE000D80708F0D9C0CE019F70D2C0C11595E5D3
:100DF000D90708F044C0C11524E5D20708F0EDC0BA
:100E0000C11582E5D80710F5C11591E5D90708F09D
:100E1000D0C0CE0174E0969587957A95E1F7282F9A
:100E200023703C2F337081E090E002C0880F991F3F
:100E30003A95E2F79C68922BCF70C695C69520E252
:100E4000C29FE0011124C82BD92B24C19E0123701D
:100E500033278C2F86958695C115D34508F0AEC0F3
:100E6000C1E0D0E002C0CC0FDD1F2A95E2F720E2FE
:100E7000829FC0011124C82BD92BDC680BC1C1157E
:100E800029E5D20780F4C11588E5D80708F0AAC083
:100E9000C11596E5D90708F0B6C0CF71DD27DC2F64
:100EA000CC27D062F7C0CE01C1152AE5D20708F4DD
:100EB0009EC090568115904208F0A5C08D2F8F716D
:100EC0000E94CA08DD27D0628F719BC0C53AD10548
:100ED00009F49CC0C63AD10509F09BC0C2E8D0E431
:100EE000D9C0C83AD10509F497C0C93AD10509F467
:100EF00096C0CA3AD10509F495C0CB3AD10509F498
:100F000094C0CC3AD10509F493C0CB3BD10509F488
:100F100092C0CC3BD10509F491C0CD3AD10509F47A
:100F200090C0C03BD10509F48FC0CE3AD10509F479
:100F30008EC0CF3AD10509F48DC0C13BD10509F46B
:100F40008CC0C23BD10509F48BC0C33BD10509F469
:100F50008AC0C43BD10509F489C0C53BD10509F459
:100F600088C0C63BD10509F487C0C73BD10509F449
:100F700086C0C83BD10509F485C0C93BD10509F439
:100F800084C0CA3BD10509F483C0C0E0D4E482C068
:100F90000E94A206EC017EC0CE019927D3FF03C0B8
:100FA000EC01D86C77C0EC01D06C74C0DF70D06AF3
:100FB00071C0DC2FCC27C16FD06A6CC0C1E0D0E01B
:100FC00002C0CC0FDD1F2A95E2F720E2829FC0010C
:100FD0001124C82BD92BDA685DC0DC2FCC27C46F55
:100FE000D06A58C0DC2FCC27C06FD06A53C024E031
:100FF000969587952A95E1F78F70CF70C06ED0E0F7
:10100000D06AD82B47C0C0E0D0E044C0C1E8D0E4EB
:1010100041C0C3E8D0E43EC0C2EED4E43BC0C9EE58
:10102000D4E438C0CAEED4E435C0C5EBD4E432C051
:10103000C6EBD4E42FC0C3EBD4E42CC0C4EBD4E49F
:1010400029C0C7EBD4E426C0CCECD4E423C0CDEC5B
:10105000D4E420C0C3E8D5E41DC0CAE8D5E41AC072
:10106000C2E9D5E417C0C4E9D5E414C0C1E2D6E4AE
:1010700011C0C3E2D6E40EC0C4E2D6E40BC0C5E2A0
:10108000D6E408C0C6E2D6E405C0C7E2D6E402C092
:10109000CAE2D6E4CE01DF91CF910895823891055E
:1010A00049F1B0F48133910509F459C048F489320B
:1010B000910509F44FC08A32910509F455C008958D
:1010C0008533910509F441C08933910599F008955C
:1010D000833E910531F138F4803E910591F0823ED6
:1010E0009105A9F00895863E910501F1873E91058D
:1010F00039F1089520915C0220FD3BC021FD39C0EB
:10110000089580915C0280FF34C089E341C08091E2
:101110005C0282FF30C080915C0284FD2EC083EEB1
:1011200037C080915C0282FD26C0F5CF80915C02C1
:1011300083FF25C080915C0284FD1FC087EE28C01C
:1011400080915C0283FD1BC0F5CF80915C0285FD20
:1011500018C019C080915C0285FD15C012C0809135
:101160005C0286FD12C013C080915C0286FD0FC038
:101170000CC080EE0DC082EE0BC080E009C086EE90
:1011800007C089E205C085E303C08AE201C081E3AC
:1011900090E0089590915C0292FF0DC0282F287175
:1011A000283019F4877F846006C0282F24712430EA
:1011B00011F48B7F886093FF0DC0282F2871283190
:1011C00019F4877E846106C0282F2471243111F41C
:1011D0008B7E886194FD877E089590939001809323
:1011E0008F010895E0918F01F0919001309721F0E7
:1011F0000190F081E02D099480E00895E0918F0145
:10120000F0919001309721F00280F381E02D099454
:101210000895E0918F01F0919001309721F00480C2
:10122000F581E02D0994089520918D0130918E0172
:101230002817390771F090938E0180938D01E0910A
:101240008F01F0919001309721F00680F781E02D19
:101250000994089520918B0130918C01281739074A
:1012600071F090938C0180938B01E0918F01F0914C
:101270009001309721F00084F185E02D09940895C4
:101280000C94AA0381E008950E940E1685B7806829
:1012900085BF85B7806885BF0E9430020C94841694
:1012A0005F926F927F928F929F92AF92BF92CF92F6
:1012B000DF92EF92FF920F931F93CF93DF93CDB7FF
:1012C000DEB72A970FB6F894DEBF0FBECDBF0E94DF
:1012D00031030E944209811111C08FEF89838A83F3
:1012E0001B820E9417168160782F9D838C83498111
:1012F0005A816B818D810E940D0A56C092E9692E38
:1013000091E0792E00E010E088248394912C502EF7
:10131000802F0E947D036C01F301A190B1903F01E9
:10132000A826B926A114B10431F40F5F1F4F0C3069
:10133000110569F7D2CF80913E0281FD0E9486039C
:1013400080E090E07401082E02C0EE0CFF1C0A94AD
:10135000E2F795012E213F21232B09F18E835F8235
:10136000CE20DF2081E0CD2809F480E088870E942C
:1013700017168160782F9A8789874E815F816885EB
:101380008A850E940D0A000F111FF801EE56FE4FCC
:1013900080819181E826F926F182E08205C00196DC
:1013A0008930910579F6C1CF0E9417180E94F20882
:1013B000909191018917D9F00E94F20880939101D0
:1013C0002A960FB6F894DEBF0FBECDBFDF91CF9146
:1013D0001F910F91FF90EF90DF90CF90BF90AF9053
:1013E0009F908F907F906F905F900C9405052A9648
:1013F0000FB6F894DEBF0FBECDBFDF91CF911F9126
:101400000F91FF90EF90DF90CF90BF90AF909F90A3
:101410008F907F906F905F900895CF93DF93CDB7BB
:10142000DEB72B970FB6F894DEBF0FBECDBF4F834C
:10143000588769877A878B87DE01119686E0FD01E0
:1014400011928A95E9F785E0FE01379601900D9299
:101450008A95E1F749815A816B817C818D819E81DA
:101460000E9434112B960FB6F894DEBF0FBECDBF8D
:10147000DF91CF910895FC01808191810E94051434
:101480000895CF93882309F404C1C82F8238C1F48A
:101490000E94F20881FDFDC069E3809102019091F4
:1014A00003010E9481150E9464142FEF81EE94E0E5
:1014B000215080409040E1F700C0000069E319C06E
:1014C000833801F50E94F20880FDE3C063E5809156
:1014D0000201909103010E9481150E9464142FEF74
:1014E00081EE94E0215080409040E1F700C0000080
:1014F00063E580910201909103010E948315CF91D1
:101500000C9464148438C1F40E94F20882FDC1C0B6
:1015100067E480910201909103010E9481150E946D
:1015200064142FEF81EE94E0215080409040E1F769
:1015300000C0000067E4DDCF8CEF8C0F813A68F4C7
:101540008C2F0E94311A8111A4C06C2F809102014E
:10155000909103010E948115D2CF80E28C0F8830D8
:1015600048F4C77081E001C0880FCA95EAF70E946D
:101570009A14C5CF8BE58C0F833078F4C53A29F0E7
:10158000C63A31F083E890E005C081E890E002C0FF
:1015900082E890E0CF910C94140988E58C0F853196
:1015A00008F06FC0C83A61F1C93A69F1CA3A71F1FD
:1015B000CB3A79F1CC3A81F1CB3B89F1CC3B91F13B
:1015C000CD3A99F1C03BA1F1CE3AA9F1CF3AB1F1B0
:1015D000C13BB9F1C23BC1F1C33BC9F1C43BD1F13D
:1015E000C53BD9F1C63BE1F1C73BE9F1C83BF1F19D
:1015F000C93BF9F1CA3B09F43FC080E090E03EC02E
:1016000082EE90E03BC089EE90E038C08AEE90E038
:1016100035C085EB90E032C086EB90E02FC083EBC5
:1016200090E02CC084EB90E029C087EB90E026C0CE
:101630008CEC90E023C08DEC90E020C083E891E03A
:101640001DC08AE891E01AC082E991E017C084E9E0
:1016500091E014C081E292E011C083E292E00EC0FA
:1016600084E292E00BC085E292E008C086E292E05C
:1016700005C087E292E002C08AE292E0CF910C942A
:101680002A09C03F30F08C2F0E941F17CF910C9475
:101690000C18CF910895882309F464C0823879F436
:1016A0000E94F20881FF5EC069E38091020190917F
:1016B00003010E9481150E94641469E310C08338FD
:1016C000B1F40E94F20880FF4DC063E580910201F1
:1016D000909103010E9481150E94641463E580913A
:1016E0000201909103010E9483150C9464148438C4
:1016F00079F40E94F20882FF35C067E4809102010C
:10170000909103010E9481150E94641467E4E7CF61
:101710009CEF980F913A10F4682FE1CF90E2980F68
:10172000983050F4877091E001C0990F8A95EAF7DC
:10173000892F0E94A014D9CF9BE5980F933020F4F5
:1017400080E090E00C94140998E5980F953120F40E
:1017500080E090E00C942A09803F20F00E948717D7
:101760000C940C180895882321F00E949A140C946C
:1017700064140895882321F00E94A0140C9464142A
:1017800008958F929F92AF92BF92DF92EF92FF9255
:101790000F931F93CF93DF937C01D62FC72FFC01AC
:1017A000058102950F70128111110E94B7140E94D9
:1017B0005D14882379F0112369F080E28D0F883061
:1017C00048F082E00E9446140E945D1491E0D82EF9
:1017D000D92601C0D12CBC2EB2948FE0B8228B2D1B
:1017E00090E0FC01E859FF4F0C94E6218C2F807F9C
:1017F000CF70882311F0C295C07F112399F0CC23BC
:1018000009F4C3C180E28D0F883010F0D11104C0FB
:101810008C2F0E949A1403C08C2F0E94AA140E943D
:101820006414B3C18D2F0E944B0BCC2309F4D2C199
:1018300080E28D0F883010F0D11104C08C2F0E94EF
:10184000A01403C08C2F0E94B0140E946414C2C163
:101850008C2F807FCF70803211F0C295C07FDD2346
:1018600019F0D130C9F022C0112371F0002341F0EA
:10187000013031F40E94D0148C2B0E94CA14AAC1EA
:101880000E94D0148C2B3AC1002319F0013009F4C6
:10189000A1C10E94CD1418C0112321F0063008F018
:1018A00099C10EC0053008F095C10EC0112351F04A
:1018B000002331F0F701858180FF67C18F70858338
:1018C0008C2F1CC1011172C18C2F1EC18C2F8695CB
:1018D0008695837019F0813061F07CC1112321F06D
:1018E0008D2F9C2F937002C080E090E00E9414091D
:1018F0007EC1112321F08D2F9C2F937002C080E0B8
:1019000090E00E942A0973C11123F9F0D53F51F0EC
:10191000D63F71F0D43FA9F48091560290915702BE
:1019200081600BC08091560290915702826005C081
:101930008091560290915702846090935702809351
:1019400056028D2F0E941F171EC0D53F51F0D63F63
:1019500071F0D43FA9F480915602909157028E7F86
:101960000BC080915602909157028D7F05C08091E7
:101970005602909157028B7F9093570280935602A4
:101980008D2F0E9487170E940C1831C18C2F8370F5
:1019900009F04CC0111127C12D2F229526952770D3
:1019A000220F220F6D2F6F70862F90E0A0E0B0E025
:1019B0004C015D01022E04C0880C991CAA1CBB1CA2
:1019C0000A94D2F7D4FF12C08FE090E0A0E0B0E01C
:1019D00004C0880F991FAA1FBB1F2A95D2F7BC010C
:1019E000CD01609570958095909503C060E070E0A2
:1019F000CB01C695C695C370C23051F080F46829FA
:101A000079298A299B29C13071F00E948512EBC087
:101A1000682979298A299B290E949712E4C00E948B
:101A20008512C501B4010E947312DDC0112319F0A3
:101A30008C2F817001C08695882309F4D4C02D2F86
:101A4000229526952770220F220F6D2F6F70862FFB
:101A500090E0A0E0B0E04C015D01022E04C0880CD3
:101A6000991CAA1CBB1C0A94D2F7D4FF12C08FE0A9
:101A700090E0A0E0B0E004C0880F991FAA1FBB1F30
:101A80002A95D2F7BC01CD0160957095809590950F
:101A900003C060E070E0CB01C695C695C370C2304C
:101AA00051F080F4682979298A299B29C13071F085
:101AB0000E944A1398C0682979298A299B290E9483
:101AC0005C1391C00E944A13C501B4010E943813EF
:101AD0008AC08D2F90E0FC01E05EF109E531F1054F
:101AE00008F04FC0E858FF4F0C94E621DF708C2FB0
:101AF0008F71112331F00E94D1128D2F0E94B30BF0
:101B000069C00E94F2128D2F0E94BA0B63C011238C
:101B100041F0053008F05EC08C2F8F710E941713C2
:101B200059C0063008F056C0F7CF112339F08C2F7A
:101B30008F710E94D1124EC01123C9F38C2F8F7167
:101B40000E94F21247C0112329F08C2F8F710E943E
:101B5000BC1240C00E94B7123DC0112349F0CF71A2
:101B60008C2F0E94D11263E08C2F0E943D1432C052
:101B700081E00E944614023068F182E00E9446141F
:101B800029C0112331F0002391F28D2F0E94410AC8
:101B900021C0002399F2D93349F4FFEF27EE83E007
:101BA000F15020408040E1F700C000008D2F0E94DE
:101BB0004B0B10C04C2F4F706D2FC7010E948B062E
:101BC0000E94E21114C04C2F4F706D2FC7010E946C
:101BD0008E060DC098E0B91631F0B91640F086EFC8
:101BE0008B0D823020F40E94F2080E940505DD2052
:101BF000E1F00E94391480FD18C0F70112820E94A2
:101C000033140E94D112C7010E94210E0E94331486
:101C1000DF91CF911F910F91FF90EF90DF90BF90D8
:101C2000AF909F908F900C94F212DF91CF911F9103
:101C30000F91FF90EF90DF90BF90AF909F908F90AB
:101C400008950F931F93CF93DF93EC0198818981BF
:101C50002B813C81232B31F08F3F31F481E09F3F7A
:101C600019F403C081E001C080E080FD13C0CE0103
:101C70000E941D05882371F0688179818A810E9404
:101C800010148C010E946E130E945F12B801CE01E5
:101C90000E94C10BDF91CF911F910F9108950E9477
:101CA000B7140E94C71480910201909103010E9411
:101CB00085150E9464140E94AE180E940C1880E0E2
:101CC00090E00E94140980E090E00C942A090E94A0
:101CD000A7140C944F0E0E940514E92FE295EF70A3
:101CE0004E2F50E0FA013297EE30F105B0F4E35791
:101CF000FF4F0C94E621803F91F018F4803E68F489
:101D00000EC0843F51F40BC0803E48F0813F29F45F
:101D100006C093FB882780F9089580E0089581E04C
:101D20000895CF93DF9300D000D01F92CDB7DEB7D8
:101D30000F900F900F900F900F90DF91CF9108951B
:101D4000CF93DF9300D000D000D0CDB7DEB726967A
:101D50000FB6F894DEBF0FBECDBFDF91CF910895CF
:101D60001F93CF93DF93C091AB0116E08091AC013C
:101D7000C81799F0D0E01C9FF0011D9FF00D1124B1
:101D8000E355FE4F40815181628173818481958149
:101D90000E94A00E2196C770E9CFDF91CF911F91CD
:101DA00008954091DD015091DE016091DF01709155
:101DB000E0018091E1019091E2010C94A00ECF939B
:101DC0008091E20182958F7009F05FC08091DF0100
:101DD000882309F45AC08091AB01B091AC01709195
:101DE000DD01A091DE014091E0015091E10191E01F
:101DF0007F3F09F090E0692FC6E08B1709F445C0DA
:101E00004115510521F0AF3F21F020E003C021E052
:101E100001C0262F90E020FD35C0C89FF001C99F6A
:101E2000F00D1124E355FE4F21812A132BC0208190
:101E3000271328C02281211125C023813481241732
:101E4000350710F421503109241B350B283C31058E
:101E5000C8F42091E2012F7020612093E20126E076
:101E6000289FF001299FF00D1124EE54FE4F808130
:101E70008F70806180838DED91E00E94210ECF9163
:101E80000C94B00E01968770B8CFCF910895AF92A1
:101E9000BF92CF92DF92EF92FF920F931F93CF9357
:101EA000DF93CDB7DEB761970FB6F894DEBF0FBEF4
:101EB000CDBF8C0185E0F801DE011D9601900D92E9
:101EC0008A95E1F7D8014C9111965C911197129681
:101ED000EC903091DD016091DE018091E001909104
:101EE000E101009731F06F3F31F421E03F3F19F4F9
:101EF00003C021E001C020E0B22FB170BB2E20FD55
:101F000060C1F801C380D480A090DF01AA2009F449
:101F1000EEC02091E201C816D90628F0D601A81B10
:101F2000B90BCD0104C0809590958C0D9D1DFF24AB
:101F3000F394883C910580F0F12C207F09F09CC03F
:101F40007C2DD98AC88A6E2D89890E94910E8DEDCB
:101F500091E00E94210E2DC1822F807F09F054C094
:101F6000561314C0431312C0FE2CE1100FC02F7083
:101F700020612093E2010E94D10E8DED91E00E943C
:101F8000210E8091E201F80185835CC1CD2831F0FA
:101F90005F3F31F481E04F3F19F403C081E001C09D
:101FA00080E080FD03C081E08E2502C080E090E0EB
:101FB000F82FF170FF2E80FF1CC08091AB012091A3
:101FC000AC0136E0821709F41AC190E0389FF001A5
:101FD000399FF00D1124E355FE4F6181561306C061
:101FE0006081461303C06281E61203C001968770C8
:101FF000E9CFFE2CEE2009F425C18091E201816039
:102000008093E201F12C1EC1561309C0431307C08F
:10201000E11005C08091E201F8018583A4C04D87DD
:102020005E878D859E850E946B0E882379F1EE2058
:1020300069F12091E201822F82958F7090E00297E2
:1020400074F08091DD019091DE0198878F8319866D
:10205000DB86CA862C87CE0107960E94210E86E079
:10206000F801ADEDB1E001900D928A95E1F70E9483
:10207000DF0E0E94D10E0DC0561771F04D875E879E
:102080008D859E850E946B0E81111AC0C8010E9429
:10209000210EFF24F394D6C04313F0CFE110EECF0E
:1020A0008091E201F8018583C8010E94210E86E03B
:1020B000EDEDF1E0DF011D928A95E9F7FA2CC2C03F
:1020C000EE2021F32091E201822F82958F7090E023
:1020D00002972CF28091DD019091DE019A83898331
:1020E0001B82DD82CC822E83CE010196B6CFC8162C
:1020F000D90628F0F601E81BF90BCF0104C0809542
:1021000090958C0D9D1D883C910548F0F12C7C2DFF
:10211000D98AC88A6E2D89890E94910E4AC0FE2CE8
:10212000EE2009F4B3CF561333C0431331C02091CE
:10213000E20120FD24C0822F82958F70482F50E04D
:1021400041155105E1F0D80115962C9315974F30A4
:10215000510549F08F5F982F9295907F822F8F7055
:10216000892B15968C93C8010E94210E86E0F801F8
:10217000ADEDB1E001900D928A95E1F73DC086E0AA
:10218000F801ADEDB1E001900D928A95E1F75AC0EA
:102190004D875E878D859E850E946B0E81115FCF76
:1021A0008091E20181608093E201C8010E94210ECA
:1021B00049C0EDEDF1E086E0DF011D928A95E9F777
:1021C0001BC0EE2009F462CF4D875E878D859E850A
:1021D0000E946B0EF82E882309F458CF86E0F80190
:1021E000ADEDB1E001900D928A95E1F78DED91E0B2
:1021F0000E943B0A0E94DF0E0E94D10E23C04D8731
:102200005E878D859E850E940514292F22952F704B
:10221000223028F49F7039F0811105C00BC02430A2
:1022200028F49F7049F4805E883020F0C8010E9435
:10223000210EBF2CFB2C06C0D80115969C91907FD7
:1022400091F7F8CF8F2D61960FB6F894DEBF0FBED1
:10225000CDBFDF91CF911F910F91FF90EF90DF9055
:10226000CF90BF90AF9008951F93CF93DF93CDB7DA
:10227000DEB72C970FB6F894DEBF0FBECDBF4F83ED
:10228000588769877A878B879C87CE0107960E943B
:10229000470F8823D1F09F8188852A853B85232B92
:1022A00031F08F3F31F481E09F3F19F403C081E0AA
:1022B00001C080E080FD47C04F81588569857A85DF
:1022C0008B859C850E94A00E3EC086E0FE0137965D
:1022D000DE01119601900D928A95E1F7FF81E88564
:1022E0006A857B856115710531F0EF3F31F481E03E
:1022F000FF3F19F403C081E001C080E080FD23C0EE
:102300002091AC0130E0C901019687709927409176
:10231000AB0150E084179507F1F1F983EA837D83DF
:102320006C8396E0929FD001939FB00D1124A3552A
:10233000BE4FFE01319601900D929A95E1F7809380
:10234000AC010E94B00E16E08091AB019091AC01FF
:10235000891771F1189FC001112483559E4F0E9467
:10236000470F882329F1E091AB011E9FF001112452
:10237000E355FE4F40815181628173818481958153
:102380000E94A00E8091AB0190E001968770992782
:102390008093AB01D9CF0E94670E1092AC011092CE
:1023A000AB01EDEDF1E086E0DF011D928A95E9F7E2
:1023B0002C960FB6F894DEBF0FBECDBFDF91CF9144
:1023C0001F910895EF92FF920F931F93CF93DF9386
:1023D0008C01892B09F46CC0F12CEE24E394E80104
:1023E0002196F8018491843740F4843008F051C07C
:1023F000813081F0823019F15BC0853709F444C027
:10240000A8F19CE7980F903708F052C08F770E9490
:102410004B0B41C00E5F1F4FFE01849190E2980F5D
:10242000983050F48770FE2D01C0FF0F8A95EAF7AF
:102430008F2F0E94BA1414C00E94410A2DC00E5F53
:102440001F4FFE01849190E2980F983060F48770DE
:10245000FE2D01C0FF0F8A95EAF78F2F0E94C0144E
:102460000E94641419C00E944B0B16C00E5F1F4FD0
:10247000FE01C491CC2381F08FE99FE00197F1F731
:1024800000C00000C150F6CF0E5F1F4FFE01F49058
:1024900003C00E94410A8E018F2D882309F49FCF2B
:1024A000EFE9FFE03197F1F700C000008150F5CF70
:1024B000DF91CF911F910F91FF90EF9008950895B4
:1024C00008950C9460120C9461120E946312609340
:1024D0002D0270932E0280932F02909330020C9461
:1024E0004F0E0C9465120F931F9300912D021091C3
:1024F0002E0220912F0230913002602B712B822B03
:10250000932B1F910F910C9465120F931F930091C1
:102510002D0210912E0220912F0230913002602363
:102520007123822393231F910F910C9465120F93B3
:102530001F9300912D0210912E0220912F023091B5
:10254000300260277127822793271F910F910C94E7
:1025500065120C9460120E94A91260932902709374
:102560002A0280932B0290932C020C944F0E60E071
:1025700070E0CB010C94AB120F931F9341E050E03D
:1025800060E070E08A019B0104C0000F111F221F50
:10259000331F8A95D2F7C901B8011F910F910C948E
:1025A000AB120F931F9341E050E060E070E004C075
:1025B000440F551F661F771F8A95D2F78091290215
:1025C00090912A02A0912B02B0912C028A019B01CA
:1025D000082B192B2A2B3B2BC901B8011F910F91F6
:1025E0000C94AB120F931F9341E050E060E070E059
:1025F00004C0440F551F661F771F8A95D2F7409578
:102600005095609570958091290290912A02A09131
:102610002B02B0912C028A019B01082319232A2343
:102620003B23C901B8011F910F910C94AB120F937A
:102630001F9341E050E060E070E004C0440F551F7C
:10264000661F771F8A95D2F78091290290912A02FE
:10265000A0912B02B0912C028A019B010827192717
:102660002A273B27C901B8011F910F910C94AB1287
:102670000F931F930091290210912A0220912B029F
:1026800030912C02602B712B822B932B1F910F9179
:102690000C94AB120F931F930091290210912A0200
:1026A00020912B0230912C026023712382239323EB
:1026B0001F910F910C94AB120F931F93009129025D
:1026C00010912A0220912B0230912C026027712751
:1026D000822793271F910F910C94AB12089529E044
:1026E000929F800D1124E82FE695E695E695877078
:1026F00051E001C0550F8A95EAF785E0E89FF001A7
:102700001124ED51FE4F20E030E070E04081CB011C
:10271000022E02C0969587950A94E2F78170819502
:1027200084278523842781932F5F3F4F25303105F0
:1027300069F7089529E0929F800D1124682F66950E
:1027400066956695982F977085E0689FB001112473
:1027500040E050E080E0FB01E40FF51FED51FE4F3B
:10276000208130E0092E02C0369527950A94E2F7C1
:1027700021703327042E01C0220F0A94EAF7822B1E
:102780004F5F5F4F4530510531F70895CF92DF928B
:10279000EF92FF920F931F93CF93DF938C01C09022
:1027A0002902D0902A02E0902B02F0902C02809116
:1027B0002D0290912E02A0912F02B0913002C82AD2
:1027C000D92AEA2AFB2ACFE1D0E0D701C6010C2E94
:1027D00004C0B695A795979587950A94D2F780FD82
:1027E00004C0219790F780E007C0B8018C2F0E94A9
:1027F000AA060197B1F38C2FDF91CF911F910F9112
:10280000FF90EF90DF90CF900895CF93DF93EC018E
:102810000E94C613BE010E94AA06DF91CF910895BF
:102820001F93CF93DF93EB019091AA01992321F09D
:10283000CB010E94051413C0882349F0CB010E94EC
:10284000C613182F682FCE010E946F1304C0CB014E
:102850000E949A13182FBE01812F0E94AA06DF91B1
:10286000CF911F9108958091310285958595859529
:102870000895809131028770089598E0899F9001B2
:102880001124262B209331020C94D1122091310275
:102890008095822380933102982F977069F430E0FD
:1028A000482F082E000C550B2417350729F0859565
:1028B000859585950C94F212089590913102977048
:1028C00081E009F480E00895E0910201F0910301B4
:1028D00080913D028083E0910201F091030190819B
:1028E00080913C02892B8083E0910201F0910301E9
:1028F000908180913B02892B8083809132028823D2
:1029000081F0E0910201F09103019081892B808395
:1029100080910201909103010E944D158111109246
:10292000320280910201909103010C94FE08809183
:102930003D02089590913D02892B80933D020895B8
:10294000809590913D02892380933D0208951092D5
:102950003D02089590913C02892B80933C0208959A
:10296000809590913C02892380933C0208951092B7
:102970003C02089590913B02892B80933B0208957D
:10298000809590913B02892380933B020895109299
:102990003B02089580933202089510923202089506
:1029A00080913202089580E090E00E94082221E0A8
:1029B0008D3E9E4F09F020E0822F089580E090E048
:1029C0000E94082221E0019609F020E0822F08955C
:1029D00082E090E00C94002283E090E00C940022CE
:1029E00084E090E00C940022682F84E090E00C9446
:1029F0000E22AB01BC018FE090E00C942022AB01D1
:102A0000BC0183E190E00C94202260E070E0CB01F7
:102A10000C94FF1460E070E0CB010E94F9140C9458
:102A200005156DEE7EEF80E090E00E942C2260E0C4
:102A300082E090E00E940E2260E083E090E00E943D
:102A40000E2210922D0210922E0210922F0210923E
:102A5000300260E084E090E00E940E2260E085E0B9
:102A600090E00E940E2260E086E090E00E940E223C
:102A70006FEF87E090E00E940E2240E050E0BA0144
:102A800088E090E00E94202260E08DE090E00E94CB
:102A90000E220C940A150C941115FC0131969C0120
:102AA000285F3F4F80E0919191118F5FE217F3070C
:102AB000D1F708959C01FC0132969FEF80E041918F
:102AC000461789F09F3F19F4411101C0982F8F5F7D
:102AD0008630A9F79F3F39F0F901E90FF11D97FD05
:102AE000FA956283089508959C012A5F3F4FFC0187
:102AF0004281461301C01282019682179307B9F7EB
:102B000008950C945A150C947415FC01319608968E
:102B10001192E817F907E1F7089508950C948D15BF
:102B20000C948D15CF930E9490150E9431030E9442
:102B30008E15C0E08C2F0E947D03892B29F4CF5F76
:102B4000CC30C1F780E001C081E0CF9108950C94B2
:102B50008D150C94A7150E94A915809162028430EE
:102B600049F110923F0220E488E190E00FB6F8941A
:102B7000A895809360000FBE2093600080E00E94C3
:102B800005050E94A91583B7817F846083BF83B741
:102B9000816083BF7894889583B78E7F83BF0FB69B
:102BA000F894A895809160008861809360001092ED
:102BB00060000FBE08950C948D150E94670E0E9450
:102BC000F2080E9405050C94DB151F920F920FB6B8
:102BD0000F9211248F939F93AF93BF9380913F02E5
:102BE000811113C08091580290915902A0915A020C
:102BF000B0915B024196A11DB11D80935802909344
:102C00005902A0935A02B0935B02BF91AF919F917A
:102C10008F910F900FBE0F901F90189582E084BD8A
:102C200093E095BD9AEF97BD80936E0008952FB7FE
:102C3000F8948091580290915902A0915A02B09153
:102C40005B022FBF0895CF92DF92EF92FF920F9316
:102C50001F932FB7F89440915802509159026091F8
:102C60005A0270915B022FBF6A017B01EE24FF24A0
:102C70008C0120E030E0C016D106E206F30610F425
:102C8000415051099A01281B390BC9011F910F911D
:102C9000FF90EF90DF90CF90089578941F920F925D
:102CA0000FB60F9211248F939F93AF93BF93809190
:102CB000580290915902A0915A02B0915B0201967C
:102CC000A11DB11D8093580290935902A0935A02FE
:102CD000B0935B02BF91AF919F918F910F900FBE08
:102CE0000F901F90189587E797E7909301088093BE
:102CF00000089AE088E10FB6F894A89580936000E8
:102D00000FBE90936000FFCF0E94D314811102C0C8
:102D10000E944B150E94E81480933E020E94F0141A
:102D200090E090935D0280935C020E94EC14682F07
:102D300070E080E090E00C9471128091420280FF7C
:102D40000BC06091070185E0689FB0011124759563
:102D50006795759567952BC081FF09C06091070144
:102D600085E0689FB00111247595679520C082FFAA
:102D700007C06091070185E0689FB001112417C06A
:102D8000909143029923D1F060910601961788F73C
:102D90002091070185E0289F90011124929FA001B6
:102DA000939F500D112470E0CA010E94D221603817
:102DB000710540F46115710519F406C065E070E015
:102DC000862F08958FE7089581E00895809142024B
:102DD00080FF08C06091050170E075956795759555
:102DE000679521C081FF06C06091050170E075956F
:102DF000679519C082FF04C06091050170E010C0A2
:102E000090914302992399F0609104019617A0F7DD
:102E100080910501899FC001112470E00E94D22198
:102E20006038710540F46115710519F406C061E060
:102E300070E0862F08958FE7089581E00895803F20
:102E400021F40E949D16819504C0813F29F40E94BF
:102E50009D16809346020895823F21F40E949D169C
:102E6000819504C0833F29F40E949D1680934502FA
:102E70000895893F19F40E94E61605C08A3F31F48F
:102E80000E94E61681958093470208958B3F21F4B6
:102E90000E94E616819504C08C3F29F40E94E61634
:102EA000809348020895843F21F480914402816018
:102EB00017C0853F21F480914402826011C0863F93
:102EC00021F48091440284600BC0873F21F48091FB
:102ED0004402886005C0883F31F4809144028061DB
:102EE0008093440208958D3F21F4809142028160D5
:102EF0000BC08E3F21F480914202826005C08F3F5B
:102F000029F4809142028460809342020895803FB8
:102F100039F48091460287FF6CC01092460269C066
:102F2000813F29F4809146021816BCF362C090914B
:102F30004502823F29F497FF5CC01092450259C0B8
:102F4000833F19F41916CCF354C0893F41F48091A2
:102F5000470218160CF04DC0109247024AC08A3F33
:102F600029F48091470287FF44C0F6CF8B3F39F4A4
:102F70008091480287FF3DC0109248023AC08C3FC2
:102F800029F4809148021816BCF333C0843F21F421
:102F9000809144028E7F17C0853F21F480914402C6
:102FA0008D7F11C0863F21F4809144028B7F0BC03E
:102FB000873F21F480914402877F05C0883F31F428
:102FC000809144028F7E8093440213C08D3F21F490
:102FD000809142028E7F0BC08E3F21F4809142028D
:102FE0008D7F05C08F3F29F4809142028B7F8093B3
:102FF00042028091450281110EC0809146028111EA
:103000000AC080914702811106C080914802811157
:1030100002C010924302089584E492E00E940909DC
:103020000E941716909341028093400208951F93C7
:10303000CF93DF9380914002909141020E9423162A
:10304000AC0190914302992321F02091080130E0D6
:1030500006C0209109018AE0289F9001112442179F
:10306000530708F477C080914502C0914602D09181
:10307000470210914802811107C0C11167C0D111E8
:1030800065C0111163C066C09F3F19F09F5F9093A8
:103090004302181624F40E949D16809345028091E5
:1030A000450287FF05C00E949D16819580934502C9
:1030B0001C1624F40E949D168093460280914602BD
:1030C00087FF05C00E949D1681958093460230912E
:1030D00045023323C1F0209146022223A1F045EBA3
:1030E0003403C0011124892F911101C081E0809324
:1030F000450235EB2303C0011124892F911101C032
:1031000081E0809346021D1624F40E94E616809307
:1031100047028091470287FF05C00E94E61681950D
:1031200080934702111624F40E94E6168093480209
:103130008091480287FF05C00E94E6168195809322
:103140004802DF91CF911F910C940C189F3F09F01A
:103150009DCFAECFDF91CF911F910895E4E4F2E0CF
:1031600085E0DF011D928A95E9F7109243021092E3
:1031700042020895833081F128F4813059F0823081
:10318000D1F00895853009F449C0B8F1863009F4CA
:1031900056C0089580910901262F30E0280F311D77
:1031A0002F3F310524F4680F6093090108958FEFD4
:1031B00080930901089580910801262F30E0280F9F
:1031C000311D2F3F310524F4680F609308010895E5
:1031D0008FEF80930801089580910701262F30E03A
:1031E000280F311D2F3F310524F4680F609307012C
:1031F00008958FEF80930701089580910601262F8F
:1032000030E0280F311D2F3F310524F4680F609303
:10321000060108958FEF80930601089580910501BE
:10322000262F30E0280F311D2F3F310524F4680F81
:103230006093050108958FEF8093050108958091B3
:103240000401262F30E0280F311D2F3F310524F4D3
:10325000680F6093040108958FEF8093040108952F
:10326000833011F128F4813049F0823091F00895D3
:10327000853081F120F18630C1F1089580910901F6
:10328000681720F4861B80930901089510920901A4
:10329000089580910801681720F4861B8093080127
:1032A000089510920801089580910701681720F48D
:1032B000861B80930701089510920701089580915D
:1032C0000601681720F4861B80930601089510926A
:1032D0000601089580910501681720F4861B8093EC
:1032E0000501089510920501089580910401681761
:1032F00020F4861B80930401089510920401089520
:103300000F931F9341E050E060E070E08A019B0161
:1033100004C0000F111F221F331F8A95D2F7C90165
:10332000B8010E9471121F910F910C94670E8732A1
:10333000D8F58E3108F07DC08E3009F467C098F45E
:10334000873009F455C08B3009F476C0863009F017
:1033500077C080913E02817F8E7F80933E0281E024
:1033600080934A020895863109F466C068F480317A
:1033700009F066C080913E0283FB222720F991E08C
:10338000922790FB83F94BC0893109F455C08B31EA
:1033900009F056C080913E0281FB222720F991E07E
:1033A000922790FB81F93BC0883309F445C048F46B
:1033B000893209F443C0853309F440C08732F1F102
:1033C0003FC08334D9F120F48A33D0F1895332C01D
:1033D0008834B1F50E94670E2FEF83ED90E3215002
:1033E00080409040E1F700C000000E94731624C0A6
:1033F00080913E02982F9095917090FB80F9809378
:103400003E02911119C0897F877F10C080913E02D2
:1034100082FB222720F991E0922790FB82F980938A
:103420003E02992349F080913E02816080933E02E2
:1034300003C08D510E94801981E0089580E0FACF89
:1034400080E0089580E008950C94221A8E518A300D
:1034500030F4E82FF0E0E65DFE4F8081089580E0D3
:103460000895CF93C82F80914A02813069F018F0F7
:103470008230C9F183C0E0910201F09103018081A3
:10348000823209F07DC007C0E0910201F091030192
:103490008081823261F48C2F0E94241A811104C031
:1034A0008C2F0E9497191DC081E090E01AC08C2FCC
:1034B0000E94221A811114C0C43179F048F4CB3033
:1034C00079F0C03109F060C082E080934A0208C000
:1034D000C93219F0C83321F057C010924A0254C0C3
:1034E00081E0817053C0C93289F118F5C43171F19E
:1034F000B0F4C73009F046C08EE18093090182E341
:10350000809308018AE08093070184E1809306019B
:1035100088E08093050188E28093040133C082EE45
:103520008C0F863078F58C2F0E94261A80934902E2
:1035300029C0CE34E9F020F4CB3421F56AE013C081
:10354000C13579F0C235F1F461E00DC080914902D6
:10355000882319F01092490215C081E080934A0235
:1035600015C061E006C0809149020E94BA180AC0E5
:103570006AE0809149020E94301904C010924A0208
:1035800080E004C081E002C080E0ABCFCF9108951D
:103590008091530208950F931F93CF93DF9300D030
:1035A0001F92CDB7DEB78C010E94171D823011F03B
:1035B000843019F583E089831B830A838093E900B3
:1035C0008FEF9091E800815095FD06C095ED9A959A
:1035D000F1F700008111F5CF8091E80085FF0DC063
:1035E00040E050E063E070E0CE0101960E94341D9F
:1035F0008091E8008E778093E8000F900F900F90F5
:10360000DF91CF911F910F910895CF93DF9300D059
:103610001F92CDB7DEB720916202243031F522E04F
:103620002983805891099B838A8383E08093E900F2
:103630008FEF9091E800815095FD06C095ED9A9529
:10364000F1F700008111F5CF8091E80085FF0DC0F2
:1036500040E050E063E070E0CE0101960E94341D2E
:103660008091E8008E778093E8000F900F900F9084
:10367000DF91CF910895CF93DF93EC010E94171D46
:10368000823011F08430F9F482E08093E9008FEF0A
:103690009091E800815095FD06C095ED9A95F1F75F
:1036A00000008111F5CF8091E80085FF0CC040E05B
:1036B00050E065E070E0CE010E94341D8091E8008A
:1036C0008E778093E800DF91CF910895CF93DF93B9
:1036D000EC010E94171D823011F0843039F581E031
:1036E0008093E9008FEF9091E800815095FD06C02E
:1036F00095ED9A95F1F700008111F5CF8091E800E2
:1037000085FF14C040E050E068E070E0CE010E9408
:10371000341D8091E8008E778093E80088E0FE01F8
:10372000ABE4B2E001900D928A95E1F7DF91CF9181
:10373000089580916102811109C00E94C51E0E94F6
:10374000221F8091E20084608093E200089510922D
:1037500061020895089508950C94DD1542E061EC2E
:1037600081E00E943E1E42E061EC82E00E943E1E2B
:1037700042E061EC83E00C943E1E80916402833051
:1037800009F453C030F4813071F0823009F48CC0F8
:1037900008958A3009F478C08B3009F45EC089300E
:1037A00009F09AC020C080916302813A09F094C068
:1037B0008091E800877F8093E80080916702909174
:1037C0006802892B21F468E08BE492E003C060E09A
:1037D00080E090E070E00E947F1D8091E8008B7790
:1037E0008093E800089580916302813209F074C0EB
:1037F0008091670290916802892B09F06DC08091D9
:10380000E800877F8093E8008091E80082FD05C092
:10381000809162028111F8CF5FC08091F1008093A6
:1038200053028091E8008B7753C080916302813A04
:1038300009F052C08091670290916802892B09F0CB
:103840004BC08091E800877F8093E8008091E8007A
:1038500080FFFCCF8091140136C0809163028132D9
:10386000D9F58091670290916802892BA9F5809122
:10387000E800877F8093E8000E94731E80916502B4
:10388000809314010C94670E80916302813221F5BC
:103890008091E800877F8093E8000E94731E8091EA
:1038A000660280935402089580916302813AA1F4E4
:1038B0008091E800877F8093E8008091E80080FF96
:1038C000FCCF809154028093F1008091E8008E77C4
:1038D0008093E8000C94731E089584B7877F84BF9B
:1038E0000FB6F894A895809160008861809360007D
:1038F000109260000FBE80E880936100109261001A
:103900000E9440090E94C51E0E94221F8091E20071
:1039100084608093E20078940E94B7210E94440959
:103920008AE091E00E94ED0880916202853069F49E
:103930000E94AB15809160028823B1F30E9492151A
:10394000882391F30E941E1DEFCF0E945009ECCFF7
:103950000C94AA1C292F332723303105C9F060F4B9
:103960002130310581F02230310509F047C084E56E
:1039700090E020E532E046C02132310511F12232DB
:10398000310561F13BC082E190E024EA32E03AC0C7
:1039900099278130910561F040F08230910559F00E
:1039A000039761F5E2E2F2E008C0ECE4F2E005C062
:1039B000ECE3F2E002C0E8E2F2E0849190E09F01E3
:1039C00021C063307105D0F4660F771FFB01E35C03
:1039D000FE4F2081318189E090E014C06330710591
:1039E00068F4FB01EE0FFF1FE95CFE4F208131817F
:1039F000FB01EC5CFE4F808190E004C080E090E031
:103A000020E030E0FA013183208308950895CF93B8
:103A1000C82F0E94061DC0935502CF910895809132
:103A20006202843011F081E0089582E0089580916F
:103A30005502811102C00C940F1D089580E189BDCB
:103A400082E189BD09B400FEFDCF8091D8008F7D51
:103A50008093D8008091E00082608093E0008091A4
:103A6000E00081FDFCCF0895CF92DF92EF92FF92AC
:103A70000F931F93CF93DF93EC018B017A010E9488
:103A8000921E811133C0E114F10439F0F7018081F5
:103A90009181081B190BC80FD91FC12CD12C0115FE
:103AA000110519F18091E80085FD16C08091E800AC
:103AB0008E778093E800E114F10449F0F7018081EA
:103AC0009181C80ED91ED182C08285E00FC00E94AC
:103AD000921E882321F30AC089918093F10001503E
:103AE0001109FFEFCF1ADF0ADACF80E0DF91CF9123
:103AF0001F910F91FF90EF90DF90CF90089520914C
:103B0000690230916A022617370748F0611571057E
:103B100039F42091E8002E772093E80001C0B90124
:103B2000FC0120E06115710579F180916202882322
:103B3000F1F18530F1F18091E80083FD3CC0809186
:103B4000E80082FD2EC08091E80080FFEBCF20913D
:103B5000F3008091F20090E0922B6115710551F015
:103B60008830910538F421912093F100615071095A
:103B70000196F3CF21E0089709F020E08091E8005A
:103B80008E778093E800CECF2111CFCF0AC08091ED
:103B90006202882361F0853061F08091E80083FD46
:103BA0000AC08091E80082FFF2CF80E0089582E0B1
:103BB000089583E0089581E008952091690230918D
:103BC0006A022617370748F06115710539F420910C
:103BD000E8002E772093E80001C0B901FC0120E045
:103BE0006115710591F180916202882309F440C04A
:103BF000853009F43FC08091E80083FD3DC080918D
:103C0000E80082FD2FC08091E80080FFE9CF20917D
:103C1000F3008091F20090E0922B6115710559F04C
:103C20008830910540F424912093F1003196615041
:103C300071090196F2CF21E0089709F020E0809108
:103C4000E8008E778093E800CBCF2111CCCF0AC05B
:103C500080916202882361F0853061F08091E800F4
:103C600083FD0AC08091E80082FFF2CF80E00895D2
:103C700082E0089583E0089581E00895982F9730B9
:103C800068F59093E900981739F07091EC00209155
:103C9000ED005091F00003C0242F762F50E021FD5D
:103CA00002C09F5FECCF3091EB003E7F3093EB0082
:103CB0003091ED003D7F3093ED003091EB003160AD
:103CC0003093EB007093EC002093ED005093F000E4
:103CD0002091EE0027FDE5CF80E008958F7080935E
:103CE000E90081E008958091630287FF11C080910F
:103CF000E80082FD05C0809162028111F8CF11C0F9
:103D00008091E8008B770BC080916202882349F094
:103D10008091E80080FFF8CF8091E8008E77809353
:103D2000E80008952091E4003091E50095E6409187
:103D3000EC00842F817040FF23C08091E80080FD5B
:103D40001DC080916202882399F0853099F080919E
:103D5000EB0085FD11C04091E4005091E50024176F
:103D6000350729F3915011F09A01E1CF84E00895CD
:103D700082E0089583E0089581E0089580E0089549
:103D80004091E80042FFDDCF08950E94331F0E945A
:103D90003B1FE0EEF0E0808181608083E8EDF0E0A1
:103DA00080818F77808319BCA7EDB0E08C918E7FE6
:103DB0008C9380818F7E80831092610208950F938F
:103DC0001F93CF93DF930E94331F0E943B1FC8EDC8
:103DD000D0E088818F778883888180688883888114
:103DE0008F7D888319BC1092620210925E0210923D
:103DF000600210925F0200EE10E0F80180818B7F7C
:103E0000808388818160888342E060E080E00E9456
:103E10003E1EE1EEF0E080818E7F8083E2EEF0E0F6
:103E2000808181608083808188608083F8018081C7
:103E30008E7F8083888180618883DF91CF911F91FD
:103E40000F910895E8EDF0E080818F7E8083E7EDAB
:103E5000F0E080818160808384E082BF81E0809394
:103E600061020C94DF1EE8EDF0E080818E7F80839C
:103E70001092E20008951092DA001092E100089585
:103E80001F920F920FB60F9211242F933F934F93CF
:103E90005F936F937F938F939F93AF93BF93EF93B2
:103EA000FF938091E10082FF0BC08091E20082FFCE
:103EB00007C08091E1008B7F8093E1000E94B621D2
:103EC0008091DA0080FF1FC08091D80080FF1BC066
:103ED0008091DA008E7F8093DA008091D90080FF94
:103EE0000DC080E189BD82E189BD09B400FEFDCF2E
:103EF00081E0809362020E94991B05C019BC109258
:103F000062020E94A71B8091E10080FF19C080918E
:103F1000E20080FF15C08091E2008E7F8093E20076
:103F20008091E20080618093E2008091D8008062FD
:103F30008093D80019BC85E0809362020E94AB1B7D
:103F40008091E10084FF30C08091E20084FF2CC0AA
:103F500080E189BD82E189BD09B400FEFDCF809179
:103F6000D8008F7D8093D8008091E1008F7E809370
:103F7000E1008091E2008F7E8093E2008091E20078
:103F800081608093E20080915E02882311F084E0DA
:103F900007C08091E30087FD02C081E001C083E09B
:103FA000809362020E94AC1B8091E10083FF29C0D4
:103FB0008091E20083FF25C08091E100877F80939C
:103FC000E10082E08093620210925E028091E10043
:103FD0008E7F8093E1008091E2008E7F8093E200EB
:103FE0008091E20080618093E20042E060E080E046
:103FF0000E943E1E8091F00088608093F0000E9435
:10400000AA1BFF91EF91BF91AF919F918F917F91EB
:104010006F915F914F913F912F910F900FBE0F9035
:104020001F9018951F920F920FB60F9211242F9385
:104030003F934F935F936F937F938F939F93AF9330
:10404000BF93CF93DF93EF93FF93C091E900CF70BD
:104050008091EC00D82FD17080FDD0E81092E9005B
:104060008091F000877F8093F00078940E94562022
:104070001092E9008091F00088608093F000CD2BD1
:10408000CF70C093E900FF91EF91DF91CF91BF9185
:10409000AF919F918F917F916F915F914F913F91E0
:1040A0002F910F900FBE0F901F9018951F93CF93D5
:1040B000DF93CDB7DEB7AA970FB6F894DEBF0FBE79
:1040C000CDBFE3E6F2E08091F100819322E0EB3690
:1040D000F207C9F70E94BD1B8091E80083FF2EC143
:1040E0008091630290916402492F50E04A3051055B
:1040F00008F024C1FA01E556FF4F0C94E621803800
:1041000021F0823809F01AC108C080915F029091B5
:104110006002992389F082600FC0809167028F70DE
:10412000873008F00BC18093E9008091EB0085FB9C
:10413000882780F91092E9009091E800977F90938A
:10414000E8008093F1001092F100D1C0282F2D7F5C
:1041500009F0F4C0882319F0823061F0EFC080913B
:104160006502813009F0EAC0933009F080E0809365
:1041700060022EC08091650281112AC08091670281
:104180008F702FEF280F263008F0D8C08093E900F9
:104190002091EB0020FF1CC0933021F48091EB00B4
:1041A000806214C09091EB0090619093EB0021E04D
:1041B00030E0A90102C0440F551F8A95E2F74093F1
:1041C000EA001092EA008091EB0088608093EB0097
:1041D0001092E9008091E800877F8093E8000E94B8
:1041E000731EACC08111AAC0109165021F77809127
:1041F000E3008078812B8093E3008091E800877F43
:104200008093E8000E94731E8091E80080FFFCCF3D
:104210008091E30080688093E300111102C082E086
:1042200001C083E08093620289C08058823008F028
:1042300085C080916502909166028C3D53E09507A0
:1042400079F583E08A838AE289834FB7F894DE01A7
:10425000139620E03EE051E2E32FF0E05093570048
:10426000E49120FF03C0E295EF703F5FEF708E2F67
:1042700090E0EA3010F0C79601C0C0968D939D93F0
:104280002F5F243149F74FBF8091E800877F8093EB
:10429000E8006AE270E0CE0101960E947F1D16C020
:1042A0006091670270916802AE014F5F5F4F0E949C
:1042B000A81CBC01892B09F441C09091E800977FAC
:1042C0009093E80089819A810E94DD1D8091E80029
:1042D0008B778093E80032C0803881F58091E800C8
:1042E000877F8093E80080915E028093F100809147
:1042F000E8008E7772CF811121C080916502909184
:10430000660299270297D4F48091E800877F809312
:10431000E8008091650280935E020E94731E809186
:104320005E02811106C08091E30087FD02C081E03A
:1043300001C084E0809362020E94AE1B8091E8007D
:1043400083FF0AC08091E800877F8093E800809116
:10435000EB0080628093EB00AA960FB6F894DEBF64
:104360000FBECDBFDF91CF911F9108950895CF93D8
:10437000809162028823A1F0C091E900CF709091F2
:10438000EC00892F817090FD80E8C82B1092E90025
:104390008091E80083FD0E945620CF70C093E90011
:1043A000CF91089597FB072E16F4009407D077FD60
:1043B00009D00E94EC2107FC05D03EF49095819530
:1043C0009F4F0895709561957F4F0895EE0FFF1FE1
:1043D0000590F491E02D0994AA1BBB1B51E107C085
:1043E000AA1FBB1FA617B70710F0A61BB70B881F85
:1043F000991F5A95A9F780959095BC01CD01089514
:10440000F999FECF92BD81BDF89A992780B508959C
:10441000A8E1B0E042E050E00C943422262FF99954
:10442000FECF92BD81BDF89A019700B4021639F013
:104430001FBA20BD0FB6F894FA9AF99A0FBE0895E4
:104440000396272F0E940F220E940E22252F0E94E2
:104450000F22242F0C940F220196272F0E940F2247
:104460000C940E22DC01CB01FC01F999FECF06C0B1
:10447000F2BDE1BDF89A319600B40D924150504022
:08448000B8F70895F894FFCF8E
:10448800050133022808140A321EC81A661B3B1B92
:10449800051BCB1A013536323331F7F6F5F4939212
:1044A800946697C600000000000001020304050698
:1044B80007080900404D363903EC02B60262027B58
:0444C8000294020058
:00000001FF
